:040000008A11112828
:10000800FE00030EF3000408F4000A08F50083124A
:1000180003137F08F6008A15402C8A1113288313CE
:10002800EB30FD000930FE00D830FF00E1308400DD
:100038008A15F5218A11A0308400CD308A15BD219A
:10004800F701F801F90183018A15802B8316031340
:10005800CD000030D1008030D2003F30D3000030D6
:10006800D4008030D5003F30D600831203138F01AF
:100078008E0183160313AC012C0803194028831240
:100088000313101483160313AC0183120313071C04
:100098005228831603132C080319492883121010B9
:1000A800831603136A0883120313A9008316031324
:1000B800690883120313A8008A152A228A11831259
:1000C80003132808AE002908AF002A08B0000F085B
:1000D800DD00DE015D08DE00DD010E085D07A80019
:1000E8000030031801305E07A9008A152A228A11F8
:1000F800831203132808B1002908B2002A08B300A4
:100108008A1191258A11831203132E08831603136B
:10011800CE00831203132F0883160313CF00831214
:100128000313300883160313D000DA308312031345
:10013800AE002030AF003E30B000831603134E08E7
:1001480083120313B100831603134F08831203139A
:10015800B20083160313500883120313B3008A11E5
:1001680091258A11831203132E0883160313DA00CC
:10017800831203132F0883160313DB008312031360
:10018800300883160313DC005A0883120313CE00C9
:10019800831603135B0883120313CF00831603131C
:1001A8005C0883120313D0008A1537268A1183123C
:1001B80003134F0883160313D800831203134E0842
:1001C80083160313D7003529302983160313AC018E
:1001D800570983120313DD0083160313580983128A
:1001E8000313DE00DD0A0319DE0A5D08B83E831634
:1001F8000313D700831203135E080318013E7A3EE7
:100208002C2983160313AC015708483ED700580819
:100218000318013E853E2E2983160313AC01AC0A50
:10022800570983120313DD00831603135809831239
:100238000313DE00DD0A0319DE0A5D08703E83162B
:100248000313D700831203135E080318013EF53E1B
:1002580083160313D8005A2983160313AC01AC0A7A
:100268005A295C3083120313A0003D30A100831685
:100278000313580883120313A300831603135708A4
:1002880083120313A2008A15BD238A118312031354
:100298002008003A0319E828013A0319E928033A23
:1002A80003190529013A0319102930291E3083162C
:1002B80003135802AE30031957020318AE2A403010
:1002C80083120313BE001C30BF004630C0008316E3
:1002D80003135A0883120313C100831603135B0820
:1002E80083120313C200831603135C0883120313DB
:1002F800C3008A1122278A11831203133E0883162A
:100308000313DA00831203133F0883160313DB0079
:1003180083120313400883160313DC005A08831260
:100328000313AE00831603135B0883120313AF0095
:10033800831603135C0883120313B0008316031398
:100348005A0883120313B100831603135B08831240
:100358000313B200831603135C0883120313B3005C
:100368008A1191258A11831203132E088316031309
:10037800DA00831203132F0883160313DB0083129A
:100388000313300883160313DC00D901D90A063099
:1003980059020318242C5A0883120313B100831638
:1003A80003135B0883120313B200831603135C085C
:1003B80083120313B3000030AE008030AF00BF30AB
:1003C800B0008A1191258A11831203132E08C100E7
:1003D8002F08C2003008C30083160313590883127C
:1003E8000313DD00DE0103105D0DA2005E0DA30006
:1003F80083160313590883120313DF00E001031067
:10040800DF0DE00D5F08FF3EA00060080318013E05
:10041800FF3EA1008A159C228A118312031321082A
:10042800A9002008A8008A11D9278A11831203136A
:100438002808BE002908BF002A08C0008A11222700
:100448008A11831203133E0883160313CE00831206
:1004580003133F0883160313CF00831203134008C6
:1004680083160313D0004E0883120313AE008316BD
:1004780003134F0883120313AF00831603135008A6
:1004880083120313B0008316031351088312031356
:10049800B10083160313520883120313B2008316A4
:1004A8000313530883120313B3008A1191258A1189
:1004B800831203132E0883160313D1008312031328
:1004C8002F0883160313D2008312031330088316F0
:1004D8000313D300510883120313A80083160313D0
:1004E800520883120313A9008316031353088312B7
:1004F8000313AA0083160313540883120313AB00D3
:1005080083160313550883120313AC0083160313D1
:10051800560883120313AD008A1189248A118312A5
:100528000313280883160313D4008312031329081E
:1005380083160313D500831203132A0883160313A3
:10054800D600013083120313DD005D088316031300
:10055800D907CB29403083120313BE001C30BF00DB
:100568004630C0007030A8007530A9004630AA0097
:10057800831603135A0883120313A0008316031368
:100588005B0883120313A100831603135C0883120C
:100598000313A2008A15CE218A118312031320089F
:1005A800AB002108AC002208AD008A1189248A1109
:1005B800831203132808C1002908C2002A08C300AF
:1005C8008A1122278A11831203133E088316031304
:1005D800DA00831203133F0883160313DB00831228
:1005E8000313400883160313DC005A08D4005B0881
:1005F800D5005C08D6005A08D1005B08D2005C0818
:10060800D3005A0883120313AE00831603135B0842
:1006180083120313AF00831603135C0883120313BA
:10062800B000831603135A0883120313B10083160C
:1006380003135B0883120313B200831603135C08C9
:1006480083120313B3008A1191258A1183120313AD
:100658002E0883160313DA00831203132F08831658
:100668000313DB0083120313300883160313DC0023
:10067800D901D90A063059020318242C5A088312C2
:100688000313B100831603135B0883120313B2002C
:10069800831603135C0883120313B3000030AE0003
:1006A8008030AF00BF30B0008A1191258A118312C3
:1006B80003132E08C1002F08C2003008C300831698
:1006C8000313590883120313DD00DE0103105D0DC7
:1006D800A2005E0DA30083160313590883120313A7
:1006E800DF00E0010310DF0DE00D5F08013EA00010
:1006F80060080318013E003EA1008A159C228A1159
:10070800831203132108A9002008A8008A11D927F9
:100718008A11831203132808BE002908BF002A087B
:10072800C0008A1122278A11831203133E088316F8
:100738000313CE00831203133F0883160313CF005D
:1007480083120313400883160313D0004E08831244
:100758000313AE00831603134F0883120313AF006D
:1007680083160313500883120313B0008316031370
:10077800510883120313B10083160313520883121E
:100788000313B20083160313530883120313B30031
:100798008A1191258A11831203132E0883160313D5
:1007A800D100831203132F0883160313D200831278
:1007B8000313300883160313D3005108831203135D
:1007C800A80083160313520883120313A900831683
:1007D8000313530883120313AA0083160313540840
:1007E80083120313AB0083160313550883120313F4
:1007F800AC0083160313560883120313AD008A1145
:1008080089248A1183120313280883160313D4003A
:1008180083120313290883160313D50083120313C5
:100828002A0883160313D600013083120313DD0050
:100838005D0883160313D90706305902031C422B9F
:10084800540883120313B100831603135508831247
:100858000313B20083160313560883120313B3005D
:100868004030AE001C30AF004630B0008A119125F0
:100878008A11831203132E08CE002F08CF003008E8
:10088800D0008A1537268A11831203135C08DD000D
:100898005D07831603134D0783120313DE005E08FA
:1008A80084004E0883138000840A4F0880005C0887
:1008B800031D612C83160313AB018316031354081D
:1008C80083120313A000831603135508831203131E
:1008D800A10083160313560883120313A2000030E5
:1008E800A3000030A4000030A5008A1597248A11BF
:1008F8000318802C0130812C003083120313DD0093
:100908005D0883160313AB07080083120313280836
:10091800AE002908AF002A08B00003102F0D300DD3
:10092800B1003108B4002B08AE002C08AF002D0828
:10093800B00003102F0D300DB1003108B30034089A
:100948000319B22C330834020318B92C3403FF3AC4
:100958003307AE0019302E02031CB92C2B08A8004F
:100968002C08A9002D08AA0008003308031908005C
:10097800340833020318C82C3303FF3A3407AE0097
:1009880019302E02031808000630AE002E08B200F7
:10099800AA1BB217AD1B3217A917FF30A805FF30E5
:1009A800A9050030AA05AC17FF30AB05FF30AC0530
:1009B8000030AD05330834020318082D0130031048
:1009C800AB0DAC0DAD0DFF3E031DE32C0130B302A2
:1009D800330834060319032D0130B20232080739EF
:1009E8000319032DE22C01300310AA0CA90CA80C42
:1009F800FF3E031DF82C0130AE002E08B407340862
:100A080033060319312DF72C340833020318312D1E
:100A180001300310A80DA90DAA0DFF3E031D0D2DD1
:100A28000130B4023308340603192D2D0130B20207
:100A38003208073903192D2D0C2D01300310AD0C88
:100A4800AC0CAB0CFF3E031D222D0130AE002E086E
:100A5800B30734083306031D212DB21F432DFF3081
:100A6800A806FF30A906FF30AA060130A807003003
:100A780003180130A907003003180130AA07321FF4
:100A8800552DFF30AB06FF30AC06FF30AD06013008
:100A9800AB07003003180130AC07003003180130F1
:100AA800AD07B2012808AB07290803110318290A62
:100AB800031DAC072A08031103182A0A031DAD07F2
:100AC800AD1F782DFF30AB06FF30AC06FF30AD060A
:100AD8000130AB07003003180130AC0700300318B1
:100AE8000130AD07B201B20A2B08A0002C08A10002
:100AF8002D08A2003408AE002E08A3003208AF006B
:100B08002F08A4008A155625831203132008A8006D
:100B18002108A9002208AA000800831203132E083E
:100B2800B4002F08B5003008B6000310350D360D97
:100B3800B7003708B8003808031DA92D0030AE00EB
:100B48000030AF000030B00008003108B4003208AF
:100B5800B5003308B6000310350D360DB700370859
:100B6800BD003D08031DBF2D0030AE000030AF00B2
:100B78000030B00008003D087B3EB4003408B807D8
:100B88002E08B4002F08B5003008B6001030031046
:100B9800B60CB50CB40CFF3E031DCB2D3408B700C2
:100BA8003708BD003108B4003208B5003308B60074
:100BB80010300310B60CB50CB40CFF3E031DDD2D30
:100BC8003408B7003708BD068030B4003408BD05C6
:100BD800AF17B217FF30B105FF30B2050030B305CB
:100BE8000030B9000030BA000030BB000730B40054
:100BF8003408BC002E1C0E2E3108B9073208031128
:100C08000318320A031DBA07330803110318330AFD
:100C1800031DBB0701300310B00CAF0CAE0CFF3E38
:100C2800031D0F2E01300310B10DB20DB30DFF3EA1
:100C3800031D172E0130BC02031DFE2D0930B40020
:100C48003408BC002E1C362E3108B90732080311AF
:100C58000318320A031DBA07330803110318330AAD
:100C6800031DBB0701300310B00CAF0CAE0CFF3EE8
:100C7800031D372E01300310BB0CBA0CB90CFF3E14
:100C8800031D3F2E0130BC02031D262E3908A0008B
:100C98003A08A1003B08A2003808B4003408A300B1
:100CA8003D08B5003508A4008A155625831203139C
:100CB8002008AE002108AF002208B000080001306B
:100CC80083120313A1008030A2008A15BF228A1163
:100CD80083120313DC01FF30DD000230DE008316CF
:100CE8000313280883120313EE006E08DF00C530D3
:100CF8008A151B238A1183120313DC01DC0A4E3088
:100D0800DD000030DE008316031328088312031366
:100D1800EE006E08DF00BD308A151B238A1183168A
:100D280003132A080319A22E280883120313EE00BE
:100D38006E08DC00B5308A112A208A11013083122E
:100D48000313EE006E0883160313A8070530280264
:100D5800031C0800A801043083120313EE006E0878
:100D6800AE00AD308A15C4258A11831203132F08EB
:100D780083160313EA00831203132E088316031342
:100D8800E900043083120313EE006E08AE00C5308C
:100D98008A15C4258A11831203132F088316031397
:100DA800A700831203132E0883160313A60004302A
:100DB80083120313EE006E08AE00BD308A15C425F9
:100DC8008A11831203132F0883160313A5008312B5
:100DD80003132E0883160313A4000430831203138D
:100DE800EE006E08AE00B5308A15C4258A1183124C
:100DF80003132F0883160313A300831203132E086B
:100E080083160313A20003302B020318132F00309C
:100E1800E0000130DF008630DE00A0301A2F0030FD
:100E2800E0000030DF000030DE000030DD005D084B
:100E3800A2070318A30A5E08A30708008312031376
:100E48004108C4004208C5004308C6000310450D08
:100E5800460DC7004708CC004C08031D3A2F003048
:100E6800BE000030BF000030C00008003E08C400CB
:100E78003F08C5004008C6000310450D460DC700D1
:100E88004708CD004D08031D502F0030BE0000302C
:100E9800BF000030C00008000030C9000030CA00A0
:100EA8000030CB0089304D07C4004408CC0241080B
:100EB800C4004208C5004308C60010300310C60C21
:100EC800C50CC40CFF3E031D622F4408C700470829
:100ED800CD003E08C4003F08C5004008C6001030D9
:100EE8000310C60CC50CC40CFF3E031D742F440828
:100EF800C7004708CD068030C4004408CD05C21796
:100F0800FF30C105FF30C2050030C305BF17FF30F1
:100F1800BE05FF30BF050030C0051830C4004408C6
:100F2800C80001300310C90DCA0DCB0DFF3E031DCB
:100F3800962F40084302031DA72F3F084202031DB6
:100F4800A72F3E084102031CB42F3E08C1023F08E8
:100F5800031C3F0FC2024008031C400AC302491485
:100F680001300310C10DC20DC30DFF3E031DB52F87
:100F78000130C802031D952F4908A0004A08A100A6
:100F88004B08A2004C08C4004408A3004D08C50043
:100F98004508A4008A155625831203132008BE00AD
:100FA8002108BF002208C000080083120313AD0106
:100FB800A91FE52FA809A909A80A0319A90AAD01BB
:100FC800AD0A2808A0002908A100A2018E30AB00B4
:100FD8002B08A3002D08AC002C08A4008A15562560
:100FE800831203132008A8002108A9002208AA00D8
:020FF8000800EF
:10100000FF1B0A2883137F1883170008840A03191B
:10101000FF0A080008308A000408840A82070034A6
:10102000573445344C3443344F344D3445342034F4
:0A1030004D34413441344D34003496
:10136A0083120313971CBB291712171614080800B7
:10137A0064008001840A0406031900340406BE29A5
:10138A0083120313A0008C1CC8298C102008950016
:10139A0008008312031322082104200403190800F9
:1013AA008030A206080030343034303430343034DF
:1013BA0030343034003432340034013083120313B1
:1013CA00A0002008F80678080319EE2908308700DB
:1013DA0008000430870008007E088A007F0882001F
:1013EA00F1218A158000840A04087D060319003455
:1013FA00FF0A0319FE0AF5298A1513228A158A1586
:10140A0041228A15013083120313A1008030A20001
:10141A008A15BF228A158A155922080007308312B5
:10142A00031399000330831603139100813083124A
:10143A0003139F005030831603139F008312031374
:10144A009E01831603139E010800831203132808C2
:10145A00A0002908A100A2018E30AB002B08A3002E
:10146A00A4018A155625831203132008A80021080F
:10147A00A9002208AA000800831603130712871678
:10148A003330831203139300161516129717961604
:10149A00171616131713831603138C1683120313C6
:1014AA008C128B170B17080007308316031385005D
:1014BA0023308700811281110110811401118B16CA
:1014CA000630831203138100901010129016101028
:1014DA0083160313011781130B168B170B1704308E
:1014EA0083120313870008008312031307080239C3
:1014FA00A0002008A2007708031D952A22080319D4
:10150A00952A0D3083120313A100FB30A000A00B13
:10151A008C2AA10B8C2A0000F701F70A5430080024
:10152A008312031322080319F701003008008312FB
:10153A000313A401A501201CA82A2208A407031842
:10154A00A50A2308A50701300310A20DA30DFF3E2B
:10155A00031DA92A01300310A10CA00CFF3E031D94
:10156A00B02A20082104031DA02A2508A100240866
:10157A00A000080083120313A40124082107840091
:10158A0022080318220AFF008A1500208A15003A49
:10159A000319E32A24082107840022080318220ACF
:1015AA00FF008A1500208A158A15C5218A1501307F
:1015BA0083120313A3002308A407C22A0A308A1538
:1015CA00C5218A150D308A15C52108008312031317
:1015DA00A40008302402031CF52AA001A101080076
:1015EA00E330A20022089F052408A200013003105C
:1015FA00A20DFF3E031DFC2A0310220DA30023089F
:10160A009F040C3083120313A200A20B0A2B0D2B8A
:10161A00831203139F149F18102B1E08A100831610
:10162A0003131E0883120313A00008008312031376
:10163A00E700E801E901FF30EA000330EB00E601C8
:10164A005C088A15EB228A15831203132108ED0020
:10165A002008EC006D086902031D352B6C0868022E
:10166A0003183B2B6D08E9006C08E8006B086D0253
:10167A00031D412B6A086C020318472B6D08EB0007
:10168A006C08EA000130E0006008E607252B8312A7
:10169A0003132808290403197B2BAD01AD0AA91BE2
:1016AA00622B01300310A80DA90DFF3E031D572B15
:1016BA000130AC002C08AD07542B29082B02031D5E
:1016CA00682B28082A02031C702B2808AA0229085A
:1016DA00031CAB03AB0201300310A90CA80CFF3E9C
:1016EA00031D712B0130AD02031D622B2B08A900CB
:1016FA002A08A80008008A1501228A158A15792263
:10170A008A1583120313EF006F0883160313A900C7
:10171A00C83083120313A8000030A90083160313EC
:10172A00210883120313AB008316031320088312C4
:10173A000313AA008A154C238A1583120313280857
:10174A002904031DAB2B8A1163268A1583160313FA
:10175A0029080319832B013083120313A100803057
:10176A00A2008A15BF228A158A15C5268A15832BD7
:10177A0083120313A501A601200821040319F62BDD
:10178A00A701A70AA11BD52B01300310A00DA10D9B
:10179A00FF3E031DCA2B0130A4002408A707C72B4C
:1017AA0001300310A50DA60DFF3E031DD62B2108FF
:1017BA002302031DE22B20082202031CEB2B200824
:1017CA00A2022108031CA303A3022514013003105B
:1017DA00A10CA00CFF3E031DEC2B0130A702031D38
:1017EA00D52B2608A1002508A0000800393084005E
:1017FA00E13083120313B5000408B6000830B700BD
:10180A003508840083130008B800B50A3608840036
:10181A0038088000B60AB70B052C3408B50035081D
:10182A00B9003308AF003208AE003930B5003508C8
:10183A00B0008A1556278A152530831203133406F9
:10184A00031D2B2C2B30B5003508BA003930A10006
:10185A000030A2008A15BF228A1540308312031372
:10186A003406031D08000A308A15C5218A150D3071
:10187A008A15C52108008B1C4B2C83160313AC0157
:10188A00AC0A0130F0007008AA078B100B1D7E2CE1
:10189A00063083128100013083160313A007031850
:1018AA00A10A0030A10703302102E83003192002FF
:1018BA00031C7D2CA001A1010130F0007008F9077A
:1018CA003D3079020318F9015330F0007008A9007D
:1018DA002A08F000F10179080339F2007207AD3ED7
:1018EA008400700883138000840A71088000AA01AA
:1018FA000B1183128C1E8C2C8A15B5218A15F000C7
:10190A00700883160313A900831203138C12760836
:10191A00FF0075088A0074088400730E8300FE0EA7
:10192A007E0E090083120313A21FC02C0030A600EA
:10193A000030A7008030A8002009A9002109AA00C8
:10194A002209AB00A90A0319AA0A0319AB0A290832
:10195A00A6072A0803182A0FB32CB42CA7072B08AA
:10196A0003182B0FB92CBA2CA8072608A0002708A1
:10197A00A1002808A200A51FE72C0030A60000300D
:10198A00A7008030A8002309A9002409AA00250974
:10199A00AB00A90A0319AA0A0319AB0A2908A60760
:1019AA002A0803182A0FDA2CDB2CA7072B0803189E
:1019BA002B0FE02CE12CA8072608A3002708A40077
:1019CA002808A5008030A2068030A5062508220234
:1019DA00031D080024082102031D08002308200211
:1019EA000800003083120313AC000030AB00003053
:1019FA00AA000030A90023082204210420040319A4
:101A0A004D2DAD01AD0AA31B182D0130A8000310FE
:101A1A00A00DA10DA20DA30DA80B0C2D0130A8003D
:101A2A002808AD07082D0130A8000310A90DAA0D3A
:101A3A00AB0DAC0DA80B1A2D23082702031D2F2D61
:101A4A0022082602031D2F2D21082502031D2F2DF2
:101A5A0020082402031C402D2008A4022108031C8C
:101A6A00210FA5022208031C220FA6022308031C29
:101A7A00230FA702291401300310A30CA20CA10CF6
:101A8A00A00CFF3E031D412D0130AD02031D182D90
:101A9A002C08A3002B08A2002A08A1002908A000EC
:101AAA0008008312031323080319602D2208210456
:101ABA002004031D732D0030A0000030A100003067
:101ACA00A20008000130A5002508A3070130031071
:101ADA00A20CA10CA00CFF3E031D6C2DFE302205AA
:101AEA0003198E2D672D0130A5002508A3070130A3
:101AFA00A007003003180130A10700300318013095
:101B0A00A20701300310A20CA10CA00CFF3E031D7A
:101B1A00872DFF30220503199D2D782D0130A30250
:101B2A0001300310A00DA10DA20DFF3E031D962D3D
:101B3A00A11BA32D023023020318932D2318AB2DCA
:101B4A00FF30A0057F30A105FF30A2050310A30CCA
:101B5A002308A500A601A70110300310A50DA60DA4
:101B6A00A70DFF3E031DB22D2508A0042608A104D7
:101B7A002708A204240803190800A21708008312E0
:101B8A000313BD00BC010030BB000030BA000030B6
:101B9A00B9000030B800BE01BE0A2E083E02031882
:101BAA00192E3E08B00030073D07B1003108840005
:101BBA0083130008B200840A0008B3003208330411
:101BCA000319112E3E08B00030073D07B100310855
:101BDA0084000008B200840A0008B3003208B40086
:101BEA003308B500B601B7013408B8073508031140
:101BFA000318013E031DB907360803110318013EF5
:101C0A00031DBA07370803110318013E031DBB075A
:101C1A000130B0003008BC070130B0003008BE0700
:101C2A002E083E02031CD62D3C08B000B101B201B9
:101C3A00B3013308A3003208A2003108A10030081A
:101C4A00A0003B08A7003A08A6003908A5003808F2
:101C5A00A4008A15F624831203132108AF00200872
:101C6A00AE000800831203134E08D2004F08D300B7
:101C7A005008D4000310530D540DD5005508DB004D
:101C8A005B08031D512E0030D1000030D000003017
:101C9A00CF000030CE0008004E08D2004F08D30013
:101CAA005008D40017300310D40CD30CD20CFF3ECA
:101CBA00031D582E5208D5005508D600CF17FF30FD
:101CCA00CE05FF30CF050030D0054E08D7004F08AB
:101CDA00D8005008D900DA018E30DB02DB1F932EC0
:101CEA005B08803A8F3E0318832E0030D100003003
:101CFA00D0000030CF000030CE00080001300310C1
:101D0A00DA0CD90CD80CD70CFF3E031D842E0130F7
:101D1A00D2005208DB070319AE2E832E18305B025D
:101D2A00031CAB2E0030D1000030D0000030CF00B1
:101D3A000030CE0008000130D2000310D70DD80DB4
:101D4A00D90DDA0DD20BA22E0130DB025B08031D7E
:101D5A00A02E56080319BC2ED709D809D909DA09C1
:101D6A00D70A0319D80A0319D90A0319DA0A5A0829
:101D7A00D1005908D0005808CF005708CE000800F3
:101D8A004B2F8A15E2218A15831203130708C10013
:101D9A0003300310C10CFF3E031DCE2E410801394A
:101DAA00C200C3014208B2004308B3004030C40075
:101DBA004408B4008A15FB2383160313A9010800FB
:101DCA006A0883120313B300831603136908831284
:101DDA000313B2004630C1004108B4008A15FB2340
:101DEA008A1583160313270883120313B300831675
:101DFA000313260883120313B2005630C1004108A8
:101E0A00B4008A15FB238A15831603132508831247
:101E1A000313B30083160313240883120313B200B7
:101E2A004130C1004108B4008A15FB238A15831684
:101E3A000313230883120313B30083160313220820
:101E4A0083120313B2002530C1004108B4008A1579
:101E5A00FB238A15831203130708C10003300310FA
:101E6A00C10CFF3E031D342F41080139C200C301D2
:101E7A004208B2004308B3004030C4004408B4002A
:101E8A008A15FB2383160313A9010800831603137B
:101E9A002908533A0319E52E073A0319C62E552F76
:101EAA0008000A3083120313A8000030A9002F0883
:101EBA00AB002E08AA008A154C238A158312031335
:101ECA002808303EB1003008063E840031088313EA
:101EDA0080000A30A8000030A9000A30A0000030B3
:101EEA00A1002F08A3002E08A2008A15BD238A1577
:101EFA00831203132108AB002008AA008A154C2379
:101F0A008A15831203132808303EB1003008053EB3
:101F1A0084003108831380002E30B1003008043E5B
:101F2A008400310880000A30A8000030A90064301B
:101F3A00A0000030A1002F08A3002E08A2008A15D5
:101F4A00BD238A15831203132108AB002008AA00B7
:101F5A008A154C238A15831203132808303EB100D0
:101F6A003008033E84003108831380000A30A80039
:101F7A000030A900E830A0000330A1002F08A30018
:101F8A002E08A2008A15BD238A158312031321087D
:101F9A00AB002008AA008A154C238A158312031362
:101FAA002808303EB1003008023E8400310883130D
:101FBA0080000A30A8000030A9001030A0002730A5
:101FCA00A1002F08A3002E08A2008A15BD238A1596
:101FDA00831203132108AB002008AA008A154C2398
:101FEA00831203132808303EB100300A84003108F6
:061FFA00831380000800C3
:02400E00E2FFCF
:00000001FF
