:040000008A11112828
:10000800FE00030EF6000408F7000A08F800831241
:1000180003137F08F9008A15A42B8A111328831368
:10002800ED30FD000930FE002E30FF00E330840083
:100038008A153C218A11A0308400CB308A151D21F5
:10004800F001F101F201F301F40183018A158F2A0D
:1000580083160313D2000030D5008030D6003F301D
:10006800D7000030D8008030D9003F30DA00831242
:10007800031310108F018E0183160313AA012A0897
:100088000319432883120313101483160313AA01B8
:1000980083120313071C5528831603132A08031910
:1000A8004C28831210100F0883160313CC008312F8
:1000B80003130E0883160313CB00831203131010C7
:1000C8008F018E0183160313AA012A0803196928D0
:1000D80083120313101483160313AA012A080319A1
:1000E80072288312031310100F0883160313D1000C
:1000F800831203130E0883160313D00051088312CA
:100108000313A90083160313500883120313A800CE
:100118008A1585218A11831203132808BE0029082D
:10012800BF002A08C000831603134C088312031368
:10013800A900831603134B0883120313A8008A151A
:1001480085218A11831203132808C1002908C200D7
:100158002A08C3008A1549278A11831203133E0807
:1001680083160313DC00831203133F08831603135B
:10017800DD0083120313400883160313DE001030DA
:1001880083120313AE00C930AF004030B0008316AD
:1001980003135C0883120313B100831603135D086D
:1001A80083120313B200831603135E08831203132A
:1001B800B3008A110F278A11831203132E0883169E
:1001C8000313DC00831203132F0883160313DD00C7
:1001D80083120313300883160313DE005C088312AE
:1001E8000313B100831603135D0883120313B200CF
:1001F800831603135E0883120313B3004030AE0066
:100208001C30AF004630B0008A110F278A118312C4
:1002180003132E08CE002F08CF003008D0008A150F
:10022800D3248A11831203134F0883160313D400AF
:10023800831203134E0883160313D3008312031388
:100248005C08031D4B29F4014B29013047295C3018
:1002580083160313D3023D304129B83083160313A4
:10026800D3027A30412901308312DD005D08F4079A
:10027800143083160313D3023830031CD403D4027A
:10028800802901308312DD005D08F4078029831678
:100298000313510883120313DE0083160313500857
:1002A80083120313DD000310DE0CDD0C0310DE0CDB
:1002B800DD0C5D08A0005E08A100831603134C083E
:1002C80083120313A300831603134B08831203132B
:1002D800A2008A1521238A11831203132008003AE9
:1002E80003192929013A03192B29033A031931293A
:1002F800013A0319372945291E308316031354027E
:10030800AE30031953020318D92A4030831203135D
:10031800BE001C30BF004630C000831603135408CB
:1003280083120313A90083160313530883120313BC
:10033800A8008A1585218A11831203132808C10091
:100348002908C2002A08C3008A1549278A1183127E
:1003580003133E0883160313DC00831203133F08BC
:1003680083160313DD008312031340088316031357
:10037800DE005C0883120313AE00831603135D08C6
:1003880083120313AF00831603135E08831203134B
:10039800B000831603135C0883120313B10083169D
:1003A80003135D0883120313B200831603135E0858
:1003B80083120313B3008A110F278A1183120313C0
:1003C8002E0883160313DC00831203132F088316E9
:1003D8000313DD0083120313300883160313DE00B2
:1003E800DB01DB0A06305B020318432C5C0883122E
:1003F8000313B100831603135D0883120313B200BD
:10040800831603135E0883120313B3000030AE0093
:100418008030AF00BF30B0008A110F278A118312D5
:1004280003132E08C1002F08C2003008C30083162A
:1004380003135B0883120313DD00DE0103105D0D57
:10044800A2005E0DA300831603135B088312031337
:10045800DF00E0010310DF0DE00D5F08FF3EA000A4
:1004680060080318013EFF3EA1008A15F1218A1198
:10047800831203132108A9002008A8008A15142252
:100488008A11831203132808BE002908BF002A080E
:10049800C0008A1549278A11831203133E08831660
:1004A8000313CD00831203133F0883160313CE00F2
:1004B80083120313400883160313CF004D088312D9
:1004C8000313AE00831603134E0883120313AF0001
:1004D800831603134F0883120313B0008316031304
:1004E800550883120313B1008316031356088312A9
:1004F8000313B20083160313570883120313B300C0
:100508008A110F278A11831203132E0883160313E7
:10051800D500831203132F0883160313D600831202
:100528000313300883160313D700550883120313E7
:10053800AC0083160313560883120313AD00831609
:100548000313570883120313AE00831603135808C6
:1005580083120313AF00831603135908831203137E
:10056800B000831603135A0883120313B1008A11CB
:1005780004258A11831203132C0883160313D80049
:10058800831203132D0883160313D9008312031350
:100598002E0883160313DA00013083120313DD00DB
:1005A8005D0883160313DB07F62940308312031313
:1005B800BE001C30BF004630C00083160313530929
:1005C80083120313DD0083160313540983120313E4
:1005D800DE00DD0A0319DE0A5D085C3EA8005E083D
:1005E8000318013E3D3EA9008A1585218A11831210
:1005F80003132808C1002908C2002A08C3008A1565
:1006080049278A11831203133E0883160313DC005B
:10061800831203133F0883160313DD0083120313A9
:10062800400883160313DE005C08D8005D08D90073
:100638005E08DA005C08D5005D08D6005E08D700C1
:100648005C0883120313AE00831603135D0883123C
:100658000313AF00831603135E0883120313B0005D
:10066800831603135C0883120313B1008316031364
:100678005D0883120313B200831603135E08831206
:100688000313B3008A110F278A11831203132E084C
:1006980083160313DC00831203132F088316031336
:1006A800DD0083120313300883160313DE00DB0119
:1006B800DB0A06305B020318432C5C088312031321
:1006C800B100831603135D0883120313B200831667
:1006D80003135E0883120313B3000030AE008030AA
:1006E800AF00BF30B0008A110F278A11831203139D
:1006F8002E08C1002F08C2003008C3008316031358
:100708005B0883120313DD00DE0103105D0DA200F8
:100718005E0DA300831603135B0883120313DF0027
:10072800E0010310DF0DE00D5F08013EA000600846
:100738000318013E003EA1008A15F1218A11831297
:1007480003132108A9002008A8008A1514228A1179
:10075800831203132808BE002908BF002A08C00016
:100768008A1549278A11831203133E088316031337
:10077800CD00831203133F0883160313CE008312A0
:100788000313400883160313CF004D088312031385
:10079800AE00831603134E0883120313AF008316AB
:1007A80003134F0883120313B0008316031355086D
:1007B80083120313B100831603135608831203131D
:1007C800B20083160313570883120313B3008A1168
:1007D8000F278A11831203132E0883160313D500DB
:1007E800831203132F0883160313D60083120313EF
:1007F800300883160313D700550883120313AC007F
:1008080083160313560883120313AD0083160313CC
:10081800570883120313AE00831603135808831274
:100828000313AF0083160313590883120313B00090
:10083800831603135A0883120313B1008A1104257F
:100848008A11831203132C0883160313D80083120A
:1008580003132D0883160313D900831203132E08DC
:1008680083160313DA00013083120313DD005D08D9
:1008780083160313DB0706305B02031C612B580841
:1008880083120313B1008316031359088312031349
:10089800B200831603135A0883120313B3004030BF
:1008A800AE001C30AF004630B0008A110F278A1105
:1008B800831203132E08CE002F08CF003008D00073
:1008C8008A15D3248A11831203135C08DD005D079F
:1008D80083160313520783120313DE005E08840095
:1008E8004E0883138000840A4F0880005C08DD00EE
:1008F8005D0783160313520783120313DE005E0895
:1009080084000008DF00840A0008E0002730600245
:10091800103003195F02031CA12C5C08DD005D0781
:1009280083160313520783120313DE005E08840044
:100938000F308000840A2730800083160313510883
:1009480083120313A9008316031350088312031399
:10095800A8008A1585218A11831203132808BE006E
:100968002908BF002A08C0004030C1001C30C2005E
:100978004630C3008A1549278A11831203133E089B
:1009880083160313D800831203133F088316031337
:10099800D90083120313400883160313DA0058089A
:1009A80083120313B1008316031359088312031328
:1009B800B200831603135A0883120313B30040309E
:1009C800AE009C30AF004530B0008A110F278A1165
:1009D800831203132E08CE002F08CF003008D00052
:1009E8008A15D324831203135C08DD005D07AB3E30
:1009F80084004E0883138000840A4F088000080092
:100A0800831203132C08B2002D08B3002E08B4007B
:100A18000310330D340DB5003508B8002F08B200A7
:100A28003008B3003108B4000310330D340DB5009D
:100A38003508B700380803192D2D37083802031870
:100A4800342D3803FF3A3707B20019303202031C3D
:100A5800342D2F08AC003008AD003108AE00080076
:100A6800370803190800380837020318432D3703DD
:100A7800FF3A3807B200193032020318080006306E
:100A8800B2003208B600AE1BB617B11B3617AD1749
:100A9800FF30AC05FF30AD050030AE05B017FF30B4
:100AA800AF05FF30B0050030B1053708380203182C
:100AB800832D01300310AF0DB00DB10DFF3E031DA6
:100AC8005E2D0130B7023708380603197E2D013034
:100AD800B6023608073903197E2D5D2D0130031043
:100AE800AE0CAD0CAC0CFF3E031D732D0130B200F3
:100AF8003208B807380837060319AC2D722D3808A4
:100B080037020318AC2D01300310AC0DAD0DAE0D3E
:100B1800FF3E031D882D0130B80237083806031937
:100B2800A82D0130B602360807390319A82D872DDC
:100B380001300310B10CB00CAF0CFF3E031D9D2D0E
:100B48000130B2003208B70738083706031D9C2D5C
:100B5800B61FBE2DFF30AC06FF30AD06FF30AE0627
:100B68000130AC07003003180130AD07003003181E
:100B78000130AE07361FD02DFF30AF06FF30B0066C
:100B8800FF30B1060130AF07003003180130B0075D
:100B9800003003180130B107B6012C08AF072D0843
:100BA800031103182D0A031DB0072E08031103189B
:100BB8002E0A031DB107B11FF32DFF30AF06FF301A
:100BC800B006FF30B1060130AF070030031801301E
:100BD800B007003003180130B107B601B60A2F0874
:100BE800A0003008A1003108A2003808B20032087D
:100BF800A3003608B3003308A4008A15EA23831239
:100C080003132008AC002108AD002208AE0008003C
:100C1800032F8A155A218A11831203130708EB0040
:100C280003300310EB0CFF3E031D152E6B08013932
:100C3800EC00ED016C08DC006D08DD004030EE00D2
:100C48006E08DE008A155F23F1010800831603137E
:100C58006C0883120313DD00831603136B088312D9
:100C68000313DC004630EB006B08DE008A155F23B7
:100C78008A1183160313270883120313DD008316D2
:100C88000313260883120313DC005630EB006B08AD
:100C9800DE008A155F238A11831603132508831241
:100CA8000313DD0083160313240883120313DC00E7
:100CB8004130EB006B08DE008A155F238A1183162A
:100CC8000313230883120313DD008316031322087A
:100CD80083120313DC002530EB006B08DE008A1555
:100CE8005F238A11831203130708EB0003300310F4
:100CF800EB0CFF3E031D7B2E6B080139EC00ED0168
:100D08006C08DC006D08DD004030EE006E08DE0087
:100D18008A155F23F101080083160313250883123F
:100D28000313A30083160313240883120313A200DA
:100D380083160313270883120313A10083160313D2
:100D4800260883120313A0008A15F1218A11831241
:100D58000313210883160313CC00831203132008FE
:100D680083160313CB00230883120313A3008316EF
:100D78000313220883120313A200831603134C08DB
:100D880083120313A100831603134B088312031362
:100D9800A0008A15F1218A11831203132108A900E2
:100DA8002008A8008A1585218A11831203132808B0
:100DB800C1002908C2002A08C300BC30BE00BE30EA
:100DC800BF004C30C0008A1549278A1183120313CB
:100DD8003E08CE003F08CF004008D0008A15D32433
:100DE8008A11831203134F08DD004E08DC005030CF
:100DF800EB006B08DE008A155F23F101080071081B
:100E08004D3A0319902E1E3A03192A2E073A031950
:100E18000D2E0E2F0800831203132E08B4002F087E
:100E2800B5003008B6000310350D360DB700370889
:100E3800B8003808031D272F0030AE000030AF007F
:100E48000030B00008003108B4003208B50033089B
:100E5800B6000310350D360DB7003708BD003D0844
:100E6800031D3D2F0030AE000030AF000030B00051
:100E780008003D087B3EB4003408B8072E08B400CB
:100E88002F08B5003008B60010300310B60CB50CAA
:100E9800B40CFF3E031D492F3408B7003708BD00C6
:100EA8003108B4003208B5003308B600103003101A
:100EB800B60CB50CB40CFF3E031D5B2F3408B7000D
:100EC8003708BD068030B4003408BD05AF17B21727
:100ED800FF30B105FF30B2050030B3050030B9006E
:100EE8000030BA000030BB000730B4003408BC0042
:100EF8002E1C8C2F3108B907320803110318320A47
:100F0800031DBA07330803110318330A031DBB076F
:100F180001300310B00CAF0CAE0CFF3E031D8D2F3B
:100F280001300310B10DB20DB30DFF3E031D952F17
:100F38000130BC02031D7C2F0930B4003408BC000A
:100F48002E1CB42F3108B907320803110318320ACE
:100F5800031DBA07330803110318330A031DBB071F
:100F680001300310B00CAF0CAE0CFF3E031DB52FC3
:100F780001300310BB0CBA0CB90CFF3E031DBD2F8A
:100F88000130BC02031DA42F3908A0003A08A100B3
:100F98003B08A2003808B4003408A3003D08B50097
:100FA8003508A4008A15EA23831203132008AE002B
:100FB8002108AF002208B0000800FF1BEB2F8313A5
:100FC8007F1883170008840A0319FF0A08000730EE
:100FD8008A000408840A82070034573445344C34A4
:100FE80043344F344D34453420344D344134413446
:040FF8004D34003440
:10122A0083120313971C1B29171217161408080098
:10123A0064008001840A04060319003404061E2986
:10124A0083120313A0008C1C28298C1020089500F7
:10125A0008004034303430343034303430343034B0
:10126A000034323400347E088A007F088200382134
:10127A008A158000840A04087D0603190034FF0ACF
:10128A000319FE0A3C298A156E218A158A159C21A2
:10129A008A15013083120313A1008030A2008A1537
:1012AA0063228A158A15D12108000130831203139B
:1012BA00A000200883160313A906290803196A291E
:1012CA000830831203138700080004308312870052
:1012DA00080007308312031399000330831603139F
:1012EA0091008130831203139F0050308316031339
:1012FA009F00831203139E01831603139E010800A5
:10130A00831203132808A0002908A100A2018E3025
:10131A00AB002B08A300A4018A15EA238312031346
:10132A002008A8002108A9002208AA00080083169C
:10133A00031307128716333083120313930016150B
:10134A0016129717961617161613171383160313E2
:10135A008C16831203138C128B170B170800831237
:10136A000313AF002F08AB00AC01AD012B08A0009E
:10137A002C08A1002D08A2008E30AE002E08A30072
:10138A00A4018A15EA23831203132008A80021085E
:10139A00A9002208AA000800073083160313850053
:1013AA0023308700811281110110811401118B16DB
:1013BA000630831203138100901010129016101039
:1013CA0083160313011781130B168B170B1704309F
:1013DA00831203138700080083120313A401A501D3
:1013EA00201CFD292208A4070318A50A2308A5071B
:1013FA0001300310A20DA30DFF3E031DFE2901308B
:10140A000310A10CA00CFF3E031D052A200821048D
:10141A00031DF5292508A1002408A000080083124D
:10142A000313AD01A91F202AA809A909A80A0319AB
:10143A00A90AAD01AD0A2808A0002908A100A20145
:10144A008E30AB002B08A3002D08AC002C08A4009A
:10145A008A15EA23831203132008A8002108A90089
:10146A002208AA0008008312031307080239A00001
:10147A002008A200831603132808031D5A2A831280
:10148A000313220803195A2A0D3083120313A100E9
:10149A00FB30A000A00B4F2AA10B4F2A0000831695
:1014AA000313A801A80A5430080083122208031D56
:1014BA00612A83160313A80100300800831203135C
:1014CA00A40124082107840022080318220AFF0025
:1014DA008A11E1278A15003A0319872A2408210765
:1014EA00840022080318220AFF008A11E1278A15BC
:1014FA008A1525218A15013083120313A3002308B4
:10150A00A407662A0A308A1525218A150D308A15FC
:10151A00252108008A1548218A158A1538228A1534
:10152A0083120313EF006F08F100C830A8000030DF
:10153A00A90083160313210883120313AB00831631
:10154A000313200883120313AA008A15ED228A15B1
:10155A008312031328082904031DB62A8A15F725BE
:10156A008A1571080319922A8A110C268A15922A59
:10157A0083120313A40008302402031CC72AA00103
:10158A00A1010800E330A20022089F052408A20056
:10159A0001300310A20DFF3E031DCE2A0310220DB7
:1015AA00A30023089F040C3083120313A200A20B8A
:1015BA00DC2ADF2A831203139F149F18E22A1E08CB
:1015CA00A100831603131E0883120313A000080048
:1015DA00831203132808290403191C2BAD01AD0A31
:1015EA00A91B032B01300310A80DA90DFF3E031DF3
:1015FA00F82A0130AC002C08AD07F52A29082B027D
:10160A00031D092B28082A02031C112B2808AA02E9
:10161A002908031CAB03AB0201300310A90CA80C68
:10162A00FF3E031D122B0130AD02031D032B2B08B5
:10163A00A9002A08A800080083120313A601A7011B
:10164A002008210403195A2BA501A50AA11B392B2D
:10165A0001300310A00DA10DFF3E031D2E2B0130FA
:10166A00A4002408A5072B2B01300310A60DA70DF3
:10167A00FF3E031D3A2B21082302031D462B200897
:10168A002202031C4F2B2008A2022108031CA303D9
:10169A00A302261401300310A10CA00CFF3E031D67
:1016AA00502B0130A502031D392B2708A10026085B
:1016BA00A000080063308400E33083120313DF00C4
:1016CA000408E0000830E1005F0884008313000882
:1016DA00E200DF0A6008840062088000E00AE10B89
:1016EA00692B5E08DF005F08E3005D08AF005C0855
:1016FA00AE006330DF005F08B0008A159F268A15A6
:10170A002530831203135E06031D8F2B2B30DF0057
:10171A005F08E4006330A1000030A2008A1563224A
:10172A008A154030831203135E06031D08000A302F
:10173A008A1525218A150D308A15252108008B1C4A
:10174A00AF2B83160313AA01AA0A0130F500750804
:10175A00F2078B100B1DD32B063083128100013048
:10176A0083160313A0070318A10A0030A107033048
:10177A002102E83003192002031CD22BA001A10187
:10178A000130F5007508F3073D3073020318F301C1
:10179A005330F5007508F100F2010B1183128C1E0B
:1017AA00DF2B8A1515218A15F5007508F1008312B9
:1017BA0003138C127908FF0078088A0077088400DE
:1017CA00760E8300FE0E7E0E090083120313230891
:1017DA000319F42B220821042004031D072C0030CE
:1017EA00A0000030A1000030A20008000130A500CE
:1017FA002508A30701300310A20CA10CA00CFF3E80
:10180A00031D002CFE3022050319222CFB2B01306C
:10181A00A5002508A3070130A007003003180130EE
:10182A00A107003003180130A20701300310A20CEF
:10183A00A10CA00CFF3E031D1B2CFF30220503192F
:10184A00312C0C2C0130A30201300310A00DA10D84
:10185A00A20DFF3E031D2A2CA11B372C02302302A6
:10186A000318272C23183F2CFF30A0057F30A10531
:10187A00FF30A2050310A30C2308A500A601A701A7
:10188A0010300310A50DA60DA70DFF3E031D462C13
:10189A002508A0042608A1042708A204240803197D
:1018AA000800A217080083120313E600E2010030C1
:1018BA00E3000030E4000030E500E701E70A5C08D5
:1018CA0067020318AD2C6708DE005E076607DF00B3
:1018DA005F08840083130008E000840A0008E1001E
:1018EA00600861040319A52C6708DE005E07660715
:1018FA00DF005F0884000008A800840A0008A90025
:10190A008A1585218A15831203132808AC00290831
:10191A00AD002A08AE006308AF006408B00065088D
:10192A00B1008A1104258A15831203132C08E300D7
:10193A002D08E4002E08E5000130DE005E08E2070B
:10194A000130DE005E08E7075C086702031C682CAA
:10195A006308C1006408C2006508C30062088A15EA
:10196A00B4218A15831203132808BE002908BF0070
:10197A002A08C0008A1549278A15831203133E08CC
:10198A00CE003F08CF004008D0008A15D324831226
:10199A0003134F08DD004E08DC000800831203130E
:1019AA004E08D2004F08D3005008D4000310530D3C
:1019BA00540DD5005508DB005B08031DED2C0030E3
:1019CA00D1000030D0000030CF000030CE00080037
:1019DA004E08D2004F08D3005008D4001730031025
:1019EA00D40CD30CD20CFF3E031DF42C5208D500A4
:1019FA005508D600CF17FF30CE05FF30CF0500308F
:101A0A00D0054E08D7004F08D8005008D900DA018F
:101A1A008E30DB02DB1F2F2D5B08803A8F3E0318C6
:101A2A001F2D0030D1000030D0000030CF00003030
:101A3A00CE00080001300310DA0CD90CD80CD70CF0
:101A4A00FF3E031D202D0130D2005208DB07031987
:101A5A004A2D1F2D18305B02031C472D0030D10080
:101A6A000030D0000030CF000030CE000800013036
:101A7A00D2000310D70DD80DD90DDA0DD20B3E2D99
:101A8A000130DB025B08031D3C2D56080319582D53
:101A9A00D709D809D909DA09D70A0319D80A0319BB
:101AAA00D90A0319DA0A5A08D1005908D000580885
:101ABA00CF005708CE00080083120313E600E7019F
:101ACA00E801FF30E9000330EA00EB01FA306B026B
:101ADA000318992D5C088A15BD228A1583120313EF
:101AEA002108ED002008EC006D086802031D7F2D17
:101AFA006C0867020318852D6D08E8006C08E7007A
:101B0A006A086D02031D8B2D69086C020318912D5A
:101B1A006D08EA006C08E9000130E0006008EB0794
:101B2A00FA306B02031C6F2D6909E0006A09E100B3
:101B3A00E00A0319E10A67086007E2006808031867
:101B4A00680A6107E3000310E30CE20C6208A800CC
:101B5A006308A9008A1585218A15831203132808A8
:101B6A00B1002908B2002A08B3005E08A9005D087E
:101B7A00A8008A1585218A15831203132808AE0046
:101B8A002908AF002A08B0008A110F278A15831284
:101B9A0003132E08C1002F08C2003008C30000300A
:101BAA00BE002030BF004130C0008A1549278A157F
:101BBA00831203133E08CE003F08CF004008D0002E
:101BCA008A15D324831203135F08E40064076607A7
:101BDA00E500650884004E0883138000840A4F08D4
:101BEA008000080083120313DC01FF30DD0002309D
:101BFA00DE007008EE006E08DF00C3308A1561252A
:101C0A008A1583120313DC01DC0A3330DD0000304D
:101C1A00DE007008EE006E08DF00BB308A15612511
:101C2A008A1572080319232E700883120313EE0013
:101C3A006E08DC00B3308A112C208A150130831219
:101C4A000313EE006E08F00704307002031C08004C
:101C5A00F0010430EE006E08DC00AB308A1558241F
:101C6A008A15831203135D0883160313EC0083128B
:101C7A0003135C0883160313EB0004308312031367
:101C8A00EE006E08DC00C3308A1558248A158312C8
:101C9A0003135D0883160313A700831203135C085A
:101CAA0083160313A600043083120313EE006E0892
:101CBA00DC00BB308A1558248A15831203135D0889
:101CCA0083160313A500831203135C0883160313F8
:101CDA00A400043083120313EE006E08DC00B33054
:101CEA008A1558248A15831203135D088316031371
:101CFA00A300831203135C0883160313A2000330A4
:101D0A0074020318902E0030E2000130E1008630A0
:101D1A00E000A030972E0030E2000030E1000030F1
:101D2A00E0000030DF005F08A2070318A30A60087A
:101D3A00A30708000A3083120313A8000030A90081
:101D4A002F08AB002E08AA008A15ED228A158312E5
:101D5A0003132808303EB1003008063E84003108DB
:101D6A00831380000A30A8000030A9000A30A000BE
:101D7A000030A1002F08A3002E08A2008A152123F3
:101D8A008A15831203132108AB002008AA008A15BA
:101D9A00ED228A15831203132808303EB100300859
:101DAA00053E84003108831380002E30B1003008CC
:101DBA00043E8400310880000A30A8000030A900DF
:101DCA006430A0000030A1002F08A3002E08A20052
:101DDA008A1521238A15831203132108AB002008D0
:101DEA00AA008A15ED228A15831203132808303EA9
:101DFA00B1003008033E84003108831380000A30A2
:101E0A00A8000030A900E830A0000330A1002F0884
:101E1A00A3002E08A2008A1521238A158312031310
:101E2A002108AB002008AA008A15ED228A15831220
:101E3A0003132808303EB1003008023E84003108FE
:101E4A00831380000A30A8000030A9001030A000D7
:101E5A002730A1002F08A3002E08A2008A152123EB
:101E6A008A15831203132108AB002008AA008A15D9
:101E7A00ED22831203132808303EB100300A840091
:101E8A003108831380000800831203134108C40039
:101E9A004208C5004308C6000310450D460DC70099
:101EAA004708CC004C08031D612F0030BE000030EB
:101EBA00BF000030C00008003E08C4003F08C5004B
:101ECA004008C6000310450D460DC7004708CD005F
:101EDA004D08031D772F0030BE000030BF000030D0
:101EEA00C00008000030C9000030CA000030CB0032
:101EFA0089304D07C4004408CC024108C400420896
:101F0A00C5004308C60010300310C60CC50CC40C2B
:101F1A00FF3E031D892F4408C7004708CD003E082D
:101F2A00C4003F08C5004008C60010300310C60CA4
:101F3A00C50CC40CFF3E031D9B2F4408C70047086D
:101F4A00CD068030C4004408CD05C217FF30C10554
:101F5A00FF30C2050030C305BF17FF30BE05FF3092
:101F6A00BF050030C0051830C4004408C80001305D
:101F7A000310C90DCA0DCB0DFF3E031DBD2F40082E
:101F8A004302031DCE2F3F084202031DCE2F3E08F7
:101F9A004102031CDB2F3E08C1023F08031C3F0F0E
:101FAA00C2024008031C400AC3024914013003104C
:101FBA00C10DC20DC30DFF3E031DDC2F0130C80247
:101FCA00031DBC2F4908A0004A08A1004B08A20023
:101FDA004C08C4004408A3004D08C5004508A400E5
:101FEA008A15EA23831203132008BE002108BF00C2
:061FFA002208C0000800EF
:02400E00E2FFCF
:00000001FF
